:020000040800F2
:10000000080D002081070008F1070008F10700082B
:10001000F1070008F1070008F107000800000000E0
:10002000000000000000000000000000F1070008D0
:10003000F107000800000000F1070008F1070008C0
:10004000F1070008F1070008F1070008F1070008B0
:10005000F1070008F1070008F1070008F1070008A0
:10006000F1070008F1070008F1070008F107000890
:10007000F1070008F1070008F1070008F107000880
:10008000F1070008F1070008F1070008F107000870
:10009000F1070008F1070008F1070008F107000860
:1000A000F1070008F1070008F1070008F107000850
:1000B000F1070008F1070008F1070008F107000840
:1000C000F1070008F1070008F1070008F107000830
:1000D000F1070008D50D0008F1070008F107000836
:1000E000F1070008F1070008F10700080000000010
:1000F0000000000000000000000000000000000000
:1001000000000000000000005FF808F180B584B036
:1001100000AF0346FB71FB794FEA4313DBB2FB737D
:1001200007F10F034FF03C0019464FF0010200F0B9
:10013000B7F807F11007BD4680BD00BF80B584B099
:1001400000AF0346FB7140F6D403C2F200031B78F4
:10015000FB7307F10F034FF03C0019464FF002020A
:1001600000F09EF840F6D403C2F20003FA791A7048
:1001700007F11007BD4680BD80B586B000AF78603E
:100180004FF00003FB604FF000033B8207F10C03CC
:100190004FF03C0019464FF003024FF0060300F009
:1001A000EFF84FF00103FB7240F6D403C2F20003F4
:1001B0001B78012B08D107F10B034FF03C001946C7
:1001C0004FF0020200F06CF84FF000037B6121E079
:1001D0007B694FEA43037A68D3187A694FEA42028F
:1001E00007F11800821812F80C2C4FEA022291B283
:1001F0007A694FEA420202F1010207F118008218FF
:1002000012F80C2C8A1892B292B21A807B6903F110
:1002100001037B617B69022BDADD07F11807BD461C
:1002200080BD00BF80B582B000AF07F107034FF07B
:100230003C004FF009014FF0000200F00BF8FB7991
:10024000012B14BF00230123DBB2184607F1080776
:10025000BD4680BD80B584B000AF3B600346FB71F6
:100260000B46BB7113467B71F97907F10F02BB791D
:10027000084611461A464FF0010300F081F87B79D9
:100280004FF0010202FA03F3DAB2FB7BDBB2134058
:10029000DBB2DAB23B681A7007F11007BD4680BDC9
:1002A00080B582B000AF396013460246FA71BB7167
:1002B0004FF4A840C4F200004FF0010101F000FA31
:1002C00000BF4FF4A840C4F200004FF00101C0F29B
:1002D000030101F091FA0346002BF2D0FB794FF4B1
:1002E000A840C4F2000019464FF0000201F066FA7F
:1002F00000BF4FF4A840C4F200004FF08201C0F2EA
:10030000070101F079FA0346002BF2D0BB794FF4D4
:10031000A840C4F20000194601F032FA00BF4FF4C1
:10032000A840C4F200004FF08401C0F2070101F0C0
:1003300063FA0346002BF2D03B681B784FF4A840C9
:10034000C4F20000194601F01BFA00BF4FF4A840A8
:10035000C4F200004FF08401C0F2070101F04CFA32
:100360000346002BF2D04FF4A840C4F200004FF037
:10037000010101F0C5F907F10807BD4680BD00BFC6
:1003800080B582B000AF39600146F971BA71BB80A7
:1003900000BF4FF4A840C4F200004FF4003101F058
:1003A00063FA0346002BF4D14FF4A840C4F20000D6
:1003B0004FF0010101F084F900BF4FF4A840C4F2EE
:1003C00000004FF00101C0F2030101F015FA0346ED
:1003D000002BF2D0FB794FF4A840C4F2000019467C
:1003E0004FF0000201F0EAF900BF4FF4A840C4F258
:1003F00000004FF08201C0F2070101F0FDF9034651
:10040000002BF2D04FF4A840C4F200004FF00101DD
:1004100001F036F9BB794FF4A840C4F20000194648
:1004200001F0AEF900BF4FF4A840C4F200004FF055
:100430008401C0F2070101F0DFF90346002BF2D07E
:100440004FF4A840C4F200004FF0010101F038F968
:1004500000BF4FF4A840C4F200004FF00101C0F209
:10046000030101F0C9F90346002BF2D0FB794FF4E8
:10047000A840C4F2000019464FF0010201F09EF9B5
:1004800000BF4FF4A840C4F200004FF00201C0F2D8
:10049000030101F0B1F90346002BF2D031E0BB8833
:1004A000012B0FD14FF4A840C4F200004FF000011F
:1004B00001F046F94FF4A840C4F200004FF00101EA
:1004C00001F01EF94FF4A840C4F200004FF04001C3
:1004D000C0F2030101F090F90346002B11D04FF454
:1004E000A840C4F2000001F05BF903461A463B68DD
:1004F0001A703B6803F101033B60BB8803F1FF33D3
:10050000BB80BB88002BCAD14FF4A840C4F20000C6
:100510004FF0010101F014F907F10807BD4680BD55
:1005200080B500AF4FF48053C4F202034FF4805201
:10053000C4F20202126842F001021A604FF48052C3
:10054000C4F202024FF48053C4F2020359684FF020
:100550000003CFF6FF030B4053604FF48053C4F207
:1005600002034FF48052C4F20202126822F0847235
:1005700022F480321A604FF48053C4F202034FF425
:100580008052C4F20202126822F480221A604FF4F0
:100590008053C4F202034FF48052C4F20202526844
:1005A00022F4FE025A604FF48053C4F202034FF467
:1005B0001F029A6000F008F84FF46D43CEF200037A
:1005C0004FF000629A6080BD80B500AF00F002F885
:1005D00080BD00BF80B483B000AF4FF000037B60EC
:1005E0004FF000033B604FF48053C4F202034FF41A
:1005F0008052C4F20202126842F480321A604FF450
:100600008053C4F202031B6803F400333B607B6831
:1006100003F101037B603B68002B03D17B68B3F5DA
:10062000A06FECD14FF48053C4F202031B6803F4B3
:100630000033002B03D04FF001033B6002E04FF08A
:1006400000033B603B68012B40F094804FF4005363
:10065000C4F202034FF40052C4F20202126842F0E4
:1006600010021A604FF40053C4F202034FF4005218
:10067000C4F20202126822F003021A604FF400531F
:10068000C4F202034FF40052C4F20202126842F0B4
:1006900002021A604FF48053C4F202034FF48052F6
:1006A000C4F2020252685A604FF48053C4F202034B
:1006B0004FF48052C4F2020252685A604FF48053E1
:1006C000C4F202034FF48052C4F20202526842F4B0
:1006D00080625A604FF48053C4F202034FF4805298
:1006E000C4F20202526822F47C125A604FF4805322
:1006F000C4F202034FF48052C4F20202526842F480
:10070000E8125A604FF48053C4F202034FF480524F
:10071000C4F20202126842F080721A6000BF4FF405
:100720008053C4F202031B6803F00073002BF6D061
:100730004FF48053C4F202034FF48052C4F2020219
:10074000526822F003025A604FF48053C4F202034D
:100750004FF48052C4F20202526842F002025A6020
:1007600000BF4FF48053C4F202035B6803F00C0334
:10077000082BF6D107F10C07BD4680BC704700BFBF
:1007800080B582B000AF47F2A063C0F600037B6083
:1007900040F20003C2F200033B600BE07B681A6882
:1007A0003B681A603B6803F104033B607B6803F11C
:1007B00004037B603A6840F68C03C2F200039A425D
:1007C000ECD3094809494FF000028842B8BF40F80D
:1007D000042BFFF6FAAFFFF7A3FE00F015FB07F1BD
:1007E0000807BD4680BD00008C08002004090020D9
:1007F00080B400AFFEE700BF80B489B000AF78607E
:1008000039604FF00003FB614FF000033B614FF094
:100810000003BB614FF00003FB604FF000037B61FE
:100820004FF00003BB603B68DB7803F00F03FB6114
:100830003B68DB7803F01003002B04D03B689B7807
:10084000FA691343FB613B681B88DBB2002B4ED077
:100850007B681B687B614FF00003BB6141E0BB69B3
:100860004FF0010202FA03F3FB603B681B881A4653
:10087000FB6813403B613A69FB689A422DD1BB6922
:100880004FEA8303FB60FB684FF00F0202FA03F3A9
:10089000BB60BB686FEA03037A6913407B61FB6846
:1008A000FA6902FA03F37A6913437B613B68DB78E8
:1008B000282B07D1BB694FF0010202FA03F27B68D3
:1008C0005A610AE03B68DB78482B06D1BB694FF0E0
:1008D000010202FA03F27B681A61BB6903F10103AA
:1008E000BB61BB69072BBAD97B687A691A603B6820
:1008F0001B88FF2B53D97B685B687B614FF000033B
:10090000BB6146E0BB6903F108034FF0010202FA44
:1009100003F3FB603B681B881A46FB6813403B618E
:100920003A69FB689A4230D1BB694FEA8303FB60A6
:10093000FB684FF00F0202FA03F3BB60BB686FEA7B
:1009400003037A6913407B61FB68FA6902FA03F3D7
:100950007A6913437B613B68DB78282B08D1BB693C
:1009600003F108034FF0010202FA03F27B685A61B7
:100970003B68DB78482B08D1BB6903F108034FF0D3
:10098000010202FA03F27B681A61BB6903F10103F9
:10099000BB61BB69072BB5D97B687A695A6007F1DF
:1009A0002407BD4680BC704780B487B000AF786034
:1009B0000B46FB704FF000033B614FF00003FB6000
:1009C0004FF000037B614FF00003BB607B68002B9E
:1009D00006DA4FF00003C4F20103DB697B6105E036
:1009E0004FF00003C4F201035B687B617B6803F492
:1009F00070234FEA1343BB607B684FEA03434FEA1F
:100A000013433B617B6803F44013B3F5401F10D1DF
:100A10007B6923F070637B614FF00003C4F2010334
:100A20004FF00002C4F20102526822F070625A6074
:100A300026E07B6803F48013002B10D0BB684FF0D6
:100A4000030202FA03F3FB60FB686FEA03037A69AF
:100A500013407B617B6943F070637B6110E07B68CE
:100A60004FEA53534FEA03133A6902FA03F36FEA6A
:100A700003037A6913407B617B6943F070637B6198
:100A8000FB78002B0AD07B684FEA53534FEA0313DD
:100A90003A6902FA03F37A6913437B617B68002B9E
:100AA00006DA4FF00003C4F201037A69DA6105E067
:100AB0004FF00003C4F201037A695A6007F11C0782
:100AC000BD4680BC704700BF80B483B000AF034612
:100AD000FB714FF46143CEF2000397F907204FEA10
:100AE0005212F97901F01F014FF0010000FA01F1F3
:100AF00043F8221007F10C07BD4680BC704700BFC9
:100B000080B586B000AF44F204004FF0010100F060
:100B10006FFA4FF40073BB824FF01803FB754FF070
:100B20000303BB7507F114034FF40060C4F2010026
:100B30001946FFF761FE4FF48063BB824FF0040358
:100B4000FB7507F114034FF40060C4F2010019466D
:100B5000FFF752FE4FF416537B604FF000033B81CA
:100B60004FF000037B814FF00003BB814FF0000387
:100B70003B824FF00C03FB8107F104034FF46050FC
:100B8000C4F20100194600F087FA4FF46050C4F235
:100B900001004FF0010100F055FB4FF46050C4F22A
:100BA000010040F225514FF0010200F06BFB4FF0C5
:100BB0002500FFF789FF07F11807BD4680BD00BF7C
:100BC00080B586B000AF4FF400104FF0010100F087
:100BD00039FA4FF009004FF0010100F009FA4FF027
:100BE00002004FF00101FFF7DFFE4FF44073BB82BC
:100BF0004FF00303BB754FF01C03FB7507F11403A3
:100C00004FF44060C4F201001946FFF7F5FD4FF0C4
:100C100000033B814BF6FF737B814FF00003BB81E8
:100C20004FF00003FB814FF480433B824CF2503382
:100C30007B604FF4A840C4F200004FF0010100F0C7
:100C40001FFD07F104034FF4A840C4F20000194649
:100C500000F040FC07F11807BD4680BD80B582B0AA
:100C600000AF4FF07003FB7107F107034FF03C003A
:100C700019464FF00002FFF713FB4FF00100FFF79A
:100C800045FA4FF00100FFF759FA07F10807BD4692
:100C900080BD00BF80B584B000AF78600B467B801C
:100CA0004FF00003FB811AE0FB897A68D3181B78A8
:100CB0004FF46050C4F20100194600F035FB00BF4C
:100CC0004FF46050C4F201004FF0800100F052FB7D
:100CD0000346002BF4D0FB8903F10103FB81FA8961
:100CE0007B889A42E0D107F11007BD4680BD00BF66
:100CF00080B500AF4FF00100FFF720FA00BFFFF70B
:100D000091FA034683F00103DBB2002BF7D140F6E2
:100D10008C00C2F20000FFF72FFA47F2E840C0F65D
:100D200000004FF00201FFF7B5FF40F68C03C2F25E
:100D300000031B881BB240F6D800C2F2000047F245
:100D4000EC41C0F600011A4600F0CAFD40F6D8009A
:100D5000C2F200004FF00801FFF79CFF40F68C0341
:100D6000C2F200035B881BB240F6D800C2F200005A
:100D700047F2F841C0F600011A4600F0B1FD40F616
:100D8000D800C2F200004FF00801FFF783FF40F6E1
:100D90008C03C2F200039B881BB240F6D800C2F25B
:100DA000000047F20451C0F600011A4600F098FD19
:100DB00040F6D800C2F200004FF00801FFF76AFFCA
:100DC00047F21050C0F600004FF00201FFF762FF3B
:100DD00080BD00BF80B500AF4FF46050C4F2010089
:100DE00040F2255100F0E6FA0346002B0AD04FF4FA
:100DF0006050C4F2010000F0ABFA0346522B01D15F
:100E0000FFF776FF80BD00BF80B500AFFFF778FE2B
:100E1000FFF7D6FEFFF722FFFEE700BF80B487B0E2
:100E200000AF78604FF000037B614FF000033B613F
:100E30004FF00003FB604FF00003BB604FF48053A2
:100E4000C4F202035B6803F00C037B617B69042B33
:100E50000AD0082B0FD0002B4DD17A684FF4905355
:100E6000C0F27A0313604DE07A684FF49053C0F2F9
:100E70007A03136046E04FF48053C4F202035B68C8
:100E800003F470133B614FF48053C4F202035B68B8
:100E900003F48033FB603B694FEA934303F10203A1
:100EA0003B61FB68002B09D13A694FF41063C0F233
:100EB0003D0303FB02F27B681A6023E04FF480538A
:100EC000C4F202035B6803F40033002B09D03A69D3
:100ED0004FF41063C0F23D0303FB02F27B681A601B
:100EE00010E03A694FF49053C0F27A0303FB02F228
:100EF0007B681A6006E07A684FF49053C0F27A0378
:100F0000136000BF4FF48053C4F202035B6803F028
:100F1000F0037B617B694FEA13137B6140F20003AE
:100F2000C2F200037A699B181B78DBB2BB607B6856
:100F30001A68BB6822FA03F27B685A604FF4805348
:100F4000C4F202035B6803F4E0637B617B694FEAF0
:100F500013237B6140F20003C2F200037A699B18FD
:100F60001B78DBB2BB607B685A68BB6822FA03F26D
:100F70007B689A604FF48053C4F202035B6803F409
:100F800060537B617B694FEAD3237B6140F20003AE
:100F9000C2F200037A699B181B78DBB2BB607B68E6
:100FA0005A68BB6822FA03F27B68DA604FF4805318
:100FB000C4F202035B6803F440437B617B694FEA40
:100FC00093337B6140F21003C2F200037A699B18ED
:100FD0001B78DBB2BB607B68DA68BB68B2FBF3F2FC
:100FE0007B681A6107F11C07BD4680BC704700BFD3
:100FF00080B483B000AF78600B46FB70FB78002BA9
:101000000CD04FF48053C4F202034FF48052C4F268
:10101000020291697A680A439A610DE04FF48053A5
:10102000C4F202034FF48052C4F2020291697A685A
:101030006FEA02020A409A6107F10C07BD4680BCC4
:10104000704700BF80B483B000AF78600B46FB7080
:10105000FB78002B0CD04FF48053C4F202034FF402
:101060008052C4F20202D1697A680A43DA610DE063
:101070004FF48053C4F202034FF48052C4F20202D0
:10108000D1697A686FEA02020A40DA6107F10C0757
:10109000BD4680BC704700BF80B58CB000AF7860A3
:1010A00039604FF00003FB624FF00003BB624FF06A
:1010B00000037B624FF000033B624FF00003FB61D3
:1010C0007B68FB617B681B8A9BB2FB62FA6A4CF609
:1010D000FF731340FB623B68DB88FA6A1343FB62D1
:1010E000FB6A9AB27B681A827B689B899BB2FB621F
:1010F000FA6A4EF6F3131340FB623B689A883B682A
:101100001B8913439AB23B685B8913439BB2FA6A0B
:101110001343FB62FB6A9AB27B689A817B689B8A65
:101120009BB2FB62FA6A4FF6FF431340FB623B68D7
:101130009B89FA6A1343FB62FB6A9AB27B689A82C4
:1011400007F108031846FFF769FEFA694FF4605388
:10115000C4F201039A4202D17B69BB6201E03B69A0
:10116000BB627B689B899BB29BB21BB2002B0FDAE0
:10117000BA6A13464FEA83039B184FEA83029A1810
:101180003B681B684FEA4303B2FBF3F37B620EE05C
:10119000BA6A13464FEA83039B184FEA83029A18F0
:1011A0003B681B684FEA8303B2FBF3F37B627A6A06
:1011B00048F21F53C5F2EB13A3FB02134FEA53137C
:1011C0004FEA0313FB62FB6A4FEA13134FF064020A
:1011D00002FB03F37A6AD31A3B627B689B899BB25A
:1011E0009BB21BB2002B12DA3B6A4FEAC30303F136
:1011F000320248F21F53C5F2EB13A3FB02134FEA6E
:10120000531303F00703FA6A1343FB6211E03B6ACE
:101210004FEA031303F1320248F21F53C5F2EB13F6
:10122000A3FB02134FEA531303F00F03FA6A1343AD
:10123000FB62FB6A9AB27B681A8107F13007BD46F0
:1012400080BD00BF80B483B000AF78600B46FB70F8
:10125000FB78002B08D07B689B899BB243F400533A
:101260009AB27B689A8107E07B689B899BB223F4E2
:1012700000539AB27B689A8107F10C07BD4680BC87
:10128000704700BF80B487B000AF786013460A464D
:101290007A807B704FF000033B614FF00003FB60EE
:1012A0004FF00003BB604FF000037B617B687B6104
:1012B0007B88DBB24FEA5313DBB23B617B8803F0E0
:1012C0001F03FB60FB684FF0010202FA03F3BB60EF
:1012D0003B69012B04D17B6903F10C037B610BE0BB
:1012E0003B69022B04D17B6903F110037B6103E0AE
:1012F0007B6903F114037B617B78002B06D07B694B
:101300007A691168BA680A431A6007E07B697A69EA
:101310001168BA686FEA02020A401A6007F11C07F6
:10132000BD4680BC704700BF80B483B000AF78601A
:101330000B467B807B884FEAC3534FEAD3539AB264
:101340007B689A8007F10C07BD4680BC704700BFE0
:1013500080B483B000AF78607B689B889BB24FEA13
:10136000C3534FEAD3539BB2184607F10C07BD464F
:1013700080BC704780B485B000AF78600B467B803E
:101380004FF00003FB737B681B889AB27B88134085
:101390009BB2002B03D04FF00103FB7302E04FF030
:1013A0000003FB73FB7B184607F11407BD4680BCA6
:1013B000704700BF80B487B000AF78600B467B8079
:1013C0004FF00003FB604FF000037B614FF0000320
:1013D000BB604FF00003FB747B88DBB24FEA531312
:1013E000DBB2BB607B8803F01F037B617B694FF03E
:1013F000010202FA03F37B61BB68012B06D17B6813
:101400009B899BB27A6913407B610FE0BB68022B1A
:1014100006D17B681B8A9BB27A6913407B6105E029
:101420007B689B8A9BB27A6913407B617B884FEA19
:1014300013239BB2FB60FB684FF0010202FA03F337
:10144000FB607B681B889BB2FA681340FB607B697A
:10145000002B06D0FB68002B03D04FF00103FB7478
:1014600002E04FF00003FB74FB7C184607F11C07F9
:10147000BD4680BC704700BF80B485B000AF7860C7
:1014800040F69C03C2F200031B68002B08D140F613
:101490009C03C2F2000340F60412C2F200021A607A
:1014A00040F69C03C2F200031B68FB6040F69C03FD
:1014B000C2F200031A687B68D21840F69C03C2F29D
:1014C00000031A60FB68184607F11407BD4680BC8C
:1014D000704700BF80B58AB000AF786039604FF0C8
:1014E0000003FB844FF000037B844FF00403BB84B4
:1014F0004FF49053C0F27A03FB617B689B88FB84B6
:10150000FB8C23F03F03FB8407F108031846FFF729
:1015100085FC3B69FB61FA694DF68363C4F21B33BA
:10152000A3FB02134FEA93437B84FA8C7B8C134317
:10153000FB847B68FA8C9A807B681B889BB223F0C3
:1015400001039AB27B681A804FF00003FB843B686A
:101550001A6848F2A063C0F201039A4218D83B68A7
:101560001B684FEA4303FA69B2FBF3F3BB84BB8CFD
:10157000032B02D84FF00403BB84FA8CBB8C1343BB
:10158000FB847B8C03F101039AB27B681A844BE0E5
:101590003B68DA884BF6FF739A420AD13B681A68B7
:1015A00013464FEA43039B18FA69B2FBF3F3BB847B
:1015B00010E03B681A6813464FEA83039B184FEA12
:1015C00083029B18FA69B2FBF3F3BB84BB8C43F430
:1015D0008043BB84BB8C4FEA03534FEA1353002B69
:1015E00003D1BB8C43F00103BB84BA8CFB8C134347
:1015F0009BB26FEA43436FEA5343FB847B8C4FF407
:10160000967202FB03F244F6D353C1F2620383FBEA
:1016100002134FEAA3114FEAE273CB1A9BB203F114
:1016200001039AB27B681A847B68FA8C9A837B6880
:101630001B889BB243F001039AB27B681A807B68D7
:101640001B88FB84FB8C23F4816323F00203FB845F
:101650003B689A883B685B8913439AB2FB8C1343BF
:10166000FB847B68FA8C1A803B689A893B681B89EB
:1016700013439AB27B681A8107F12807BD4680BDE3
:1016800080B483B000AF78600B46FB70FB78002B12
:1016900008D07B681B889BB243F001039AB27B6839
:1016A0001A8007E07B681B889BB223F001039AB283
:1016B0007B681A8007F10C07BD4680BC704700BFED
:1016C00080B483B000AF78600B46FB70FB78002BD2
:1016D00008D07B681B889BB243F480739AB27B6806
:1016E0001A8007E07B681B889BB223F480739AB250
:1016F0007B681A8007F10C07BD4680BC704700BFAD
:1017000080B483B000AF78600B46FB70FB78002B91
:1017100008D07B681B889BB243F400739AB27B6845
:101720001A8007E07B681B889BB223F400739AB28F
:101730007B681A8007F10C07BD4680BC704700BF6C
:1017400080B483B000AF78600B46FB70FB78002B51
:1017500008D07B681B889BB243F480639AB27B6895
:101760001A8007E07B681B889BB223F480639AB2DF
:101770007B681A8007F10C07BD4680BC704700BF2C
:1017800080B483B000AF78600B46FB70FB789AB2F0
:101790007B681A8207F10C07BD4680BC704700BF0A
:1017A00080B483B000AF78607B681B8A9BB2DBB2E9
:1017B000184607F10C07BD4680BC704780B483B063
:1017C00000AF786013460A46FA70BB70BB78002BF6
:1017D00004D0FB7843F00103FB7003E0FB7823F0B7
:1017E0000103FB70FB789AB27B681A8207F10C0741
:1017F000BD4680BC704700BF80B487B000AF786042
:1018000039604FF000033B614FF00003FB604FF085
:101810000003BB604FF00003FB757B689B8A9BB2A3
:10182000FB607B681B8B9BB2BB60BB684FEA0343CA
:10183000BB60FA68BB68134323F07F433B613A699E
:101840003B681A403B689A4203D14FF00103FB7595
:1018500002E04FF00003FB75FB7D184607F11C0703
:10186000BD4680BC704700BF80B487B000AF7860D1
:1018700039604FF00003FB754FF000033B614FF000
:101880000003FB607B68FB603B684FEA13733B61BE
:101890003B6823F07F433B603B69002B04D0FB682F
:1018A00003F11403FB6007E03B684FEA13433B601E
:1018B000FB6803F11803FB60FB681A683B68134080
:1018C000002B03D04FF00103FB7502E04FF0000343
:1018D000FB75FB7D184607F11C07BD4680BC7047B1
:1018E0000EB4F0B59CB021AC54F8042B40F2404348
:1018F0006FF00045C2F20003064602A90495079561
:1019000018684FF4027723464FF6FF75ADF8147050
:1019100002960696ADF81650019400F009F8029967
:1019200000220A701CB0BDE8F04003B0704700BF51
:101930002DE9F04FC3B08B46109314460C9002F083
:10194000D7FF0068002600271490CDE9166704F041
:101950000BF9BBF80C30189003F0800001B221B1F4
:10196000DBF81020002A01F0CA82002732AEDFF82F
:10197000209511970896259627972697A24619979E
:101980001A970F979AF80040002C00F0A281252C9E
:1019900000F09F810AF1010301E0252D04D01D789C
:1019A0001C460133002DF8D1CAEB04057DB1269AFF
:1019B0002798531C4119072BC6F800A07560279182
:1019C000269300F3698108360F9F7F190F972078BF
:1019D000002800F06981002104F1010A94F80180D7
:1019E0004FF0FF340D918DF8731009910A94202067
:1019F0002B210AF1010AA8F12002582A00F25D8287
:101A0000DFE812F074025B025B027E025B025B02A3
:101A10005B025B025B025B02B901C5015B02430131
:101A2000CA015B0285028C028C028C028C028C0241
:101A30008C028C028C028C025B025B025B025B02FA
:101A40005B025B025B025B025B025B028700880158
:101A50005B0288015B025B025B025B02F8015B02D6
:101A60005B026D005B025B025B025B025B02590082
:101A70005B025B02FF015B025B025B025B025B02DB
:101A80005B025B025B025B025B02E6018B0088018A
:101A900088018801AA028B005B025B02D7025B020D
:101AA0009D0271001F0234025B02B1025B025D0005
:101AB0005B025B024802099D45F010020992099BF6
:101AC000990600F10882099CE20641F19180109F7D
:101AD0003D683B1D10932C460123002516E1099A11
:101AE00042F010010991099B13F0200340F004819A
:101AF000099C14F0100040F06187099D15F0400327
:101B000000F05C87109F03463A1D3C880025109228
:101B1000FCE0099D45F010030993099FBF0640F1C1
:101B2000DA80109CE01D20F00705D5E90023083578
:101B3000109514461D46002A73F10000C0F2358747
:101B400001230A9F002F03DB099921F080000990EF
:101B500054EA050040F0EF830A9A002A40F0EB8334
:101B6000002B40F05886099BDA0741F1178042AFFD
:101B70003021089807F8411DC21B0E920A990E9851
:101B800000248842B8BF08469DF873300B9012912C
:101B9000159413B10B9B5A1C0B92099810F002017B
:101BA0000A9102D00B9A941C0B94099B13F08400A9
:101BB000139040F028820D9D0B996D1A002D40F373
:101BC0002282102D41F31482279A269B47F26850F7
:101BD0001024C0F6000086E811001119A7485A1C0D
:101BE000A5F1110E072A1B9027912692CEF3001320
:101BF00000F36C850836103D102D40F3F8818BB151
:101C0000013247F268531031C0F60003072A86E814
:101C100018002791269200F368850836103D102D94
:101C200040F3E58133462E463D460C9F13E00833D2
:101C3000013247F268501031C0F60000103E072A0A
:101C400083E811002791269200F3BF81103E0833EC
:101C5000102E40F3C981013247F268501031C0F6AE
:101C60000000072A83E8110027912692DFDD38461D
:101C7000594625AA03F0A8FFE8B92799269A32AB5E
:101C8000D6E70D9C109267420D97099B43F0040222
:101C900009929AF80080ACE60C98594625AA03F000
:101CA00093FF40B932AE8FE6279C24B10C98594679
:101CB00025AA03F089FFBBF80C100F9C01F040032C
:101CC0001AB2002A18BF4FF0FF34204643B0BDE8D7
:101CD000F08F54467BE60999CD0600F15986099CA0
:101CE000640640F155861098B0F90040021DE517D2
:101CF00010922B4622461EE7109BDF1D27F007029D
:101D000002F1080110910023D2E9004500208DF86E
:101D1000730016E7109DEF1D27F007010D684C6852
:101D20000831109128462146CDE916012146284662
:101D300003F0D4FE01282146284640F040870022C7
:101D4000002305F095F8002841F0F8819DF87330E4
:101D500000274B4A099912974A4F03200B90B8F17C
:101D6000470FD8BF174621F08004032000220994B2
:101D70000E9015920DE7109A109B17681A1D002FF0
:101D80000D97FFF67EAF9AF80080109231E68DF83D
:101D900073109AF800802CE6544614F8018BB8F1C1
:101DA0002A0F01F0F482A8F130030022092B01F27E
:101DB0003E8214F8018B02EB820703EB4702A8F185
:101DC0003003092BA246F4D942EAE2740A9412E6DF
:101DD0001099109C08680127221D00230B970E976D
:101DE00010928DF8A0008DF8733028AF0023129365
:101DF0001593D2E6099C44F0080309939AF80080F1
:101E0000F7E50999204D8F06199548D5109FFA1DC1
:101E100022F0070303F108041094D3E9004509995F
:101E2000C80740F1448454EA050000F040843020A3
:101E300041F002078DF874008DF875800997022330
:101E400064E710980999109D071D104841F002039E
:101E50004FF0780830222C680993109700258DF8F0
:101E600074208DF87580199002234FE7099B43F089
:101E7000200209929AF80080BBE500BF687500084F
:101E800014750008187500082475000838750008D6
:101E90005875000809999B4D8F061995B6D4099875
:101EA000C50600F19285099F7C0640F18E85109A47
:101EB0000025131D14881093B1E7B8F1000F3FF40B
:101EC000F3AE012200240B928DF8A0808DF87340B0
:101ED0000E9228AF8AE7109C0123E01D20F0070531
:101EE00005F108071097D5E900450FE79DF8733015
:101EF000002B40F095868DF873009AF8008078E505
:101F0000099C44F0010709979AF8008071E5099F40
:101F100047F0800309939AF800806AE5574600224B
:101F2000A8F1300517F8018B02EB8203A8F1300409
:101F3000092C05EB4302BA46F2D90D925BE5099CE8
:101F4000A40640F16186109F0F983B68C4170437C0
:101F500018605C60109715E5099A42F040030993F8
:101F60009AF8008045E5109B00248DF873401F68A7
:101F70001D1D002F01F0C5800A9938460029C1F2C5
:101F8000028021460A9A02F051FF002801F04281A6
:101F90000A99C01B88420E90129440F3A6871298AB
:101FA00021EAE1740B949DF8733010950E91159011
:101FB000EFE59AF800805246B8F16C0F00F0DE862B
:101FC000099F47F01003099313E53846594625AA9F
:101FD00003F0FAFD00287FF46EAE103E102E32ABF7
:101FE0002799269A3FF737AE2F4635461E464C199D
:101FF0001B9B511C072986E828002794269100F393
:102000000F84083600E0279C9DF8730068B1269B7A
:102010000134591C01200DF17302072932607060F0
:102020002794269100F3058308360A9B63B126990D
:102030000234481C02231DAA0728326073602794CB
:10204000269000F301830836139D802D00F02E8228
:10205000129D0E9BED1A002D75DD102D40F3F385BA
:10206000269A102301322848A5F1110EE418072AF8
:10207000C6F8009073600A9027942692CEF3001C55
:1020800000F3AC820836103D102D51DDBCF1000F7D
:102090000DD001321034072AC6F8009073602794DF
:1020A000269200F3AD820836103D102D40DD3146FA
:1020B0003E460C9F0EE0083101321034103D072AD5
:1020C000C1F800904B60269227941FDC103D083128
:1020D000102D2BDD01321034072AC1F800904B601F
:1020E00027942692E7DD3846594625AA069303F041
:1020F0006BFD069B00287FF4DEAD279C269A32A953
:10210000DAE700BF387500085875000838465946A8
:1021100025AA069303F058FD069B00287FF4CBAD5B
:10212000103D102D32A9279C269AD3DC37460E4647
:10213000501C0A9B6419072886E8280027942690DB
:1021400000F36C820836099BDB0500F11E8126989E
:102150000E9A3760411C0E9FA418072977602794B8
:10216000269100F3A8800836099F7B0740F1B180D3
:102170000D9D0B9BED1A002D40F3AB80102D40F30D
:10218000CC8726981027431CB24947F26850A5F126
:10219000110CE419C0F60000072B86E881000991B4
:1021A00027942693CCF3001800F3BB830836103D28
:1021B000102D40F3AD80B8F1000F11D0013347F27C
:1021C00068501034C0F60000072B86E88100279481
:1021D000269300F3D1830836103D102D40F39880EC
:1021E000DDF8308012E00836013347F268501034D1
:1021F000C0F60000103D072B86E881002693279447
:1022000077DC103D0836102D40F38280013347F211
:1022100068521034C0F60002072B86E88400279429
:102220002693E0DD4046594625AA03F0CDFC002860
:102230007FF441AD279C269B32AED5E71199269DB0
:1022400001340135012940F379840123072D3760DA
:1022500073602794269500F3878408361899013512
:10226000149A6418072D326071602794269500F344
:1022700088840836DDE916010022002304F0EEFD13
:10228000002840F0D982119801370138241801350F
:102290003760072D70602794269500F389810836F2
:1022A0001A9F0135E41921AB072D86E88800279491
:1022B00026957FF758AF0C98594625AA03F084FC61
:1022C00000287FF4F8AC099F32AE7B07279C3FF5CE
:1022D0004FAF0F9E0B980D9FB842ACBF3618F61942
:1022E0000F96002C40F070810026269632AEFFF744
:1022F00049BB4046594625AA03F066FC00287FF4F6
:10230000DAAC103D102D32AE279C269B3FF77EAFF6
:102310005A1C099F2C19072A37607560279426924A
:10232000D7DD0C98594625AA03F04EFC00287FF40F
:10233000C2AC279CCDE7012B00F0AB81022B0DF145
:10234000C70E00F08C810723E70804EA0300E908C0
:1023500047EA457430300D46C2B254EA050177466B
:102360008EF800200EF1FF3EEED109983B46C107E2
:1023700006D5302A00F096813024774603F8014CC8
:102380000899CA1B0E92FFF7F9BBB8F1650F7FF7EA
:1023900055AFDDE916010022002304F05FFD00289F
:1023A00000F0B28126982C49431C01340122072BEE
:1023B000316072602794269300F34A8408361E9891
:1023C000119FB84203DB099BDF077FF5CDAE269A4C
:1023D000149F18993760501C189F6418072877605D
:1023E0002794269000F375850836119D013D002D38
:1023F0007FF7BAAE102D40F38682269A119B1027E4
:10240000A3F1120E1548531CE419072BC6F80090CF
:1024100077600A9027942693CEF3001800F317866E
:102420000836103D102D40F37182B8F1000F0ED028
:1024300001331034072BC6F8009077602794269359
:1024400000F32B860836103D102D40F35F82DDF837
:10245000308016E06875000854750008587500084B
:1024600008364B1C1034103D072BC6F800907760DF
:102470002693279400F31E810836103D102D40F35B
:102480004582591C10340729C6F8009077602794BC
:102490002691E5DD4046594625AA03F095FB002824
:1024A0007FF409AC279C269932AEDAE70D980B9998
:1024B000451A002D7FF7CCAD102D40F38886269A63
:1024C000102301328F48A5F11101E418072AC6F83C
:1024D000009073600A9027942692C1F3001C00F3C9
:1024E0001B830836103D102D4ADDBCF1000F0DD0C6
:1024F00001321034072AC6F80090736027942692A0
:1025000000F324830836103D102D39DD21460C9C44
:102510000EE0083601321031103D072AC6F800904F
:102520007360269227911ADC103D0836102D26DDA7
:1025300001321031072AC6F8009073602791269265
:10254000E7DD2046594625AA069303F03DFB069B8E
:1025500000287FF4B0AB2799269A32AEDAE72046FE
:10256000594625AA069303F02FFB069B00287FF40B
:10257000A2AB103D102D32AE2799269AD8DC0C461E
:10258000501C0A9B6419072886E828002794269087
:1025900000F3098308365BE55A480A9001350A9B27
:1025A000E419072D86E88800279426957FF777AEF3
:1025B0000C98594625AA03F007FB00287FF47BAB53
:1025C00032AE279C269D6BE60C98594625AA03F04F
:1025D000FBFA00283FF488AEFFF76DBB0C98594614
:1025E00025AA0693CDF81CC003F0EEFA069BDDF891
:1025F0001CC000287FF45FAB32AE279C269A42E5D0
:102600000C98594625AA069303F0DEFA069B00288B
:102610007FF451AB32AE279C269A45E50C9859467B
:1026200025AA03F0D1FA00287FF445AB279C32AEEF
:1026300089E50C98594625AA03F0C6FA00287FF4CC
:102640003AAB279C32AEF0E40C98594625AA03F029
:10265000BBFA00287FF42FAB279C32AEF4E4199923
:102660000B960F2604EA060327092809CA1847EA29
:1026700005741678054654EA050077468EF8006022
:102680000EF1FF3EEDD108990B9ECB1B0E93FFF789
:1026900075BA002D08BF0A2C80F04F8142AF30344C
:1026A00007F8414D089CE21B0E92FFF767BA022320
:1026B000FFF72CBB4046594625AA03F085FA0028AF
:1026C0007FF4F9AA32AE279C269BD6E60C98594691
:1026D00025AA069303F078FA069B00287FF4EBAA5C
:1026E00032AE2799269AFFF786BA0C98594625AA42
:1026F00003F06AFA00287FF4DEAA32AE2799269A00
:10270000FFF78CBA587500081E9A002A40F3B2826F
:10271000119D1599119B8D42A8BF0D46FA18002DE9
:102720000A920ADD26986419411C072937607560F2
:102730002794269100F37F840836159B25EAE575DA
:102740005D1B002D40F35681102D40F36D822698BD
:102750004FF01008431CA14AA5F111014444072B76
:10276000C6F80090C6F804800E9227942693C1F311
:10277000001C00F34F840836103D102D40F35782A3
:10278000BCF1000F0FD001331034072BC6F80090B6
:10279000C6F804802794269300F38C840836103DF5
:1027A000102D40F3448221460C9C12E006F10800F3
:1027B00001331031103D072BC0F80090C0F80480A1
:1027C000269327911BDC00F10806103D102D40F3E5
:1027D0000D8401331031072BC6F80090C6F8048031
:1027E00027912693E2DD2046594625AA03F0ECF90D
:1027F00000287FF460AA2799269B32A8D8E72046B4
:10280000594625AA03F0E0F900287FF454AA32AE15
:102810002799269BD9E70A9C32AF0E94FFF7AEB9F1
:102820000C98594625AA03F0CFF900287FF443AA53
:10283000279C32AEFFF7E8BB119F013F002F7FF7C7
:102840002FAD102F7FF7A8AE119B4FF01008013568
:102850006249123B4444072DC6F80090C6F8048034
:102860000A9127942695C3F3001300F3B183083629
:10287000103F102F7FF792AE7BB101351034072D3A
:10288000C6F80090C6F804802794269500F3B68316
:102890000836103F102F7FF781AE22460C9C10E0C7
:1028A000083601351032103F072DC6F80090C6F8E3
:1028B0000480279226951ADC0836103F102F40F32B
:1028C0005F8301351032072DC6F80090C6F80480EA
:1028D00027922695E4DD2046594625AA03F074F98F
:1028E00000287FF4E8A9279A269D32AED9E7204632
:1028F000594625AA03F068F900287FF4DCA932AE16
:10290000279A269DD9E73549269B0A9101330A9FCC
:102910006419072B37607560279426937FF723ACE3
:10292000C9E40C98594625AA03F04EF900287FF413
:10293000C2A932AE279C269B39E40DF1C70C0B9639
:102940006646204629460A22002304F0E1FA303286
:102950003270204629460A22002304F0D9FA0446A0
:102960000D463746013E54EA0500EAD108990B9E10
:10297000CB1B0E93FFF702B90C98594625AA03F01A
:1029800023F900287FF497A932AE279C269B23E4E5
:10299000109D2B68291DDD171A461C462B46002A60
:1029A00073F100001091BFF6CBA82D22644265EBB5
:1029B00045058DF873200123FFF7C3B810990D1D4D
:1029C0000C6810950025FFF7A1B9109C2568201D03
:1029D00010902C460025FFF722BA00BF587500085A
:1029E0000C98594625AA03F0EFF800287FF463A954
:1029F000279C32AE1E9B1198159983420F4470DBC1
:102A0000099AD1076DD40A9D119AED1BD31AAB42D6
:102A1000B8BF1D46002D0ADD26996419481C0728F9
:102A2000376075602794269000F35D83083625EAA9
:102A3000E5755D1B002D7FF797AB102D7FF763AF1A
:102A4000269A1027531C8849A5F11108E419072B71
:102A5000C6F8009077600A9127942693C8F300186F
:102A600000F335830836103D102D7FF74FAFB8F1D6
:102A7000000F0ED001331034072BC6F8009077609A
:102A80002794269300F34E830836103D102D7FF7D0
:102A90003DAFDDF830800FE00836431C1034103DA8
:102AA000072BC6F8009077602693279428DC083619
:102AB000103D102D7FF72AAF581C10340728C6F898
:102AC0000090776027942690E6DD4046594625AA77
:102AD00003F07AF800287FF4EEA8279C269832AEFF
:102AE000DBE726981899421C641818981499072A4D
:102AF000316070602794269200F3B682083682E730
:102B00004046594625AA03F05FF800287FF4D3A871
:102B100032AE279C269BCBE70C98594625AA0693F4
:102B2000CDF81CC003F050F8069BDDF81CC000284F
:102B30007FF4C1A832AE279C269AD3E4099AD20723
:102B40003FF583AB37600120FFF7A3BB0C985946D4
:102B500025AA069303F038F8069B00287FF4ABA85B
:102B600032AE279C269ACEE40C98594625AA03F04B
:102B70002BF800287FF49FA8279C269D32AEFFF7F4
:102B80006DBB0C98594625AA03F01EF800287FF467
:102B900092A8279C269D32AEFFF76CBB0A9F0E972A
:102BA00032AFFEF7EBBF0C98594625AA03F00CF89C
:102BB00000287FF480A8279C32AEFFF749BA02F0C4
:102BC0008DFF002840F0E4800327099A274B0B97DC
:102BD000274F22F080010324B8F1470FD8BF1F46CA
:102BE000129009919DF873300E941590FEF7D1BFA5
:102BF00009994B0640F1B281109A0123111D1488E6
:102C000000251091FFF782B8099FF80640F1AB81CB
:102C1000109C0F9A2168271D10970A60FEF7B2BE1C
:102C20009AF80080FEF7E5BE0F4A269B0E925A1CCA
:102C30000E996419072A86E82200279426923FF706
:102C4000CFAE0836D6E60849269A0A91FFF770BA41
:102C50000C98594625AA02F0B7FF00287FF42BA84C
:102C6000279C32AEFFF7ABBB587500081C750008F7
:102C7000207500082699B74B481C0134012107280C
:102C8000336071602794269000F3498108362AB991
:102C9000119818B9099BD8077FF566AA2698189944
:102CA000431C641818981499072B3160706027949E
:102CB000269300F3C7820836C2F10008B8F1000F6E
:102CC00040F37A81B8F1100F40F3DA811025013317
:102CD000A8F11102A0486419C2F30011072BC6F82D
:102CE000009075600A90279426930E9100F3DA8283
:102CF0000836A8F11008B8F1100F40F3C3810E9AFE
:102D000082B101331034072BC6F800907560279408
:102D1000269300F30F830836A8F11008B8F1100FBE
:102D200040F3B08120460C9C13E00836013310308C
:102D3000072BC6F800907560A8F11008279026931D
:102D400000F3FC800836A8F11008B8F1100F40F32A
:102D5000948201331030072BC6F8009075602790DD
:102D60002693E2DD2046594625AA02F02DFF0028D1
:102D70007EF4A1AF2798269B32AED7E7099C0AF1D3
:102D8000010A44F02007099792F80180FEF731BE4E
:102D90000A98471C00F0CF80B8F1670F00F04C8212
:102DA000B8F1470F00F048820998002C40F4807772
:102DB0001397C0F26B8200211291B8F1660F00F0F8
:102DC0000B82B8F1460F00F00782B8F1650F00F0F2
:102DD0006282B8F1450F00F05E82DDF828C0022162
:102DE0008DE802101EA81FAF20A9029003972A4663
:102DF000234604910C98CDF81CC000F07DFCB8F17E
:102E0000670F0746DDF81CC002D0B8F1470F03D1A9
:102E1000099AD00740F1438207EB0C03B8F1460F43
:102E20000B9300F0EE81284621460022002304F097
:102E300015F800BB209A0B9C944240F2D8821346AE
:102E40003021D04303F8011B2018A342209300F047
:102E500001000FD028B151700B9A01339342209397
:102E600008D00B9C184600F8011B5970431CA34264
:102E70002093F7D10B930B99B8F1670FC7EB0103C0
:102E8000119300F06681B8F1470F00F06281B8F14C
:102E9000660F40F0B8821E9A0A9C002A40F388828E
:102EA000002C40F053820999C80700F14F8222EAB2
:102EB000E2730B930E9215921299002900F0438150
:102EC00013982D2200218DF8732009901291FEF79E
:102ED00061BE0C98594625AA02F076FE00287EF4C1
:102EE000EAAE279C32AEFFF780BA0E9B109523EA1C
:102EF000E3720B929DF873301594FEF74ABE0C985E
:102F0000402101F0FBFCCBF80000CBF810000028BA
:102F100000F072824026CBF81460FEF726BD0C98B4
:102F2000594625AA02F050FE00287EF4C4AE1E9A2F
:102F3000279C32AEABE606220A9235E72046594678
:102F400025AA02F041FE00287EF4B5AE32AE2798E5
:102F5000269BF8E654750008587500081098056817
:102F60000746FEF7B6BD109A099913680F9F101D0A
:102F700011F0400F109014BF1F801F60FEF702BDBC
:102F80001446FFF70BBB02F0EFFD1294129C20EAEF
:102F9000E0720E900B929DF8733010951594FEF729
:102FA000F8BD0C98594625AA02F00EFE00287EF4C2
:102FB00082AE279C269B32AE11995A1C6418072AB0
:102FC00037607160279426927FF7CDA8FFF773B919
:102FD0000C98594625AA069302F0F6FD069B002898
:102FE0007EF469AE32AE279C269D41E40C461EE677
:102FF000A34C2799269A1B94FEF7F9BF0C985946C3
:1030000025AA02F0E1FD00287EF455AE32AE279CE1
:10301000269D3EE40C98594625AACDF81CC002F026
:10302000D3FDDDF81CC000287EF445AE32AE279CEF
:10303000269BFFF7A1BB0C98594625AA02F0C4FDB8
:1030400000287EF438AE279C32AEFFF776BB0C9892
:10305000594625AA02F0B8FD00287EF42CAE32AE07
:10306000279C269BFFF7DDB90C98594625AA02F04C
:10307000ABFD00287EF41FAE1E9B279C32AEC2E43F
:1030800080490A9101330A994444072B86E80201DA
:103090002794269385DC08368EE70C98594625AA96
:1030A00002F092FD00287EF406AE32AE279C269BED
:1030B000FFF7C9B90C98594625AA02F085FD0028EA
:1030C0007EF4F9AD32AE279C269BFFF768BB0C98C7
:1030D000594625AA02F078FD00287EF4ECAD32AE08
:1030E000279C269BBFE40C98594625AA02F06CFD4C
:1030F00000287EF4E0AD119E1E9F279CF31B32AE8C
:1031000095E40A9F1095062F28BF062727EAE77146
:103110000E970B915C4FFEF769BE594A269B0992A8
:10312000FFF7F6B80C98594625AA02F04DFD002885
:103130007EF4C1AD32AE279C269BA6E42D238DF8EC
:103140007330FEF705BE139C9DF873300994FEF7AB
:1031500020BD1E9AD11C104602DB0A9C944228DA3C
:10316000A8F10208431E002B1E938DF88480C0F244
:1031700032812B228DF88520092B00F39F8030337C
:1031800030208DF886008DF8873022A921AA119B66
:10319000119C881A1918012C1A900E9140F3108175
:1031A0000E9C0023621C22EAE2700E920B90159393
:1031B00082E611998A4252DB0999CB0700F1DF8040
:1031C00022EAE2730B930E924FF0670873E62D4BE1
:1031D000269A0A93FFF7D4B90A9F0320009001971B
:1031E0001EA91FA820AF2A462346039004970291E8
:1031F0000C9800F081FA0A9ADDF828C08318074677
:103200000B933978302900F0A9801E980B9A131877
:103210000B9308E60A9B0A9A23EAE37112900B913A
:103220009DF8733010950E921590FEF7B2BC0022F7
:10323000A2460A92FEF7DFBB0A9F002F08BF0127B4
:103240000A97B1E50C98594625AA02F0BDFC002862
:103250007EF431AD1E9A279C269B32AE2CE5002AC7
:10326000119BD4BFC2F102000120C01820EAE07413
:103270000E900B944FF067081DE6044602E700BF6E
:1032800068750008587500084C7500082D2204F177
:103290000044129291E50A9B03F1010C9FE5209CEA
:1032A0000B94E8E50C98594625AA02F08DFC0028FD
:1032B0007EF401AD32AE279C269B1AE546F2676587
:1032C0000DF19200C6F2666585FB0324DA17C2EBA6
:1032D000A40101EB8104A3EB4403024603F1300097
:1032E0001070501E09290B46EEDC30330DF19305AA
:1032F000D9B2854202F8011C7BD9AC1AE4070DF162
:10330000850013460DD58DF8861013460DF1860005
:1033100013F8011B05E013F8014B481C4C7013F81F
:10332000011B4170411CAB42F5D142ACC2EB4401E0
:10333000F6392BE70C98594625AA02F045FC0028DF
:103340007EF4B9AC32AE279C269BE5E40A9C601C57
:10335000111821EAE1730E910B93ACE52846214642
:1033600000220023CDF81CC003F078FDDDF81CC05E
:1033700000287FF44AAFCCF101001E9046E7501CB4
:1033800020EAE0740E900B944FF0670893E5109FCD
:10339000109B3A681F1D002A9AF801800A92109724
:1033A000A246BEF626AB4FF0FF340A94FEF721BBCF
:1033B000B4B90998C10713D401210B910E917AE594
:1033C000099A12F001007FF4EBAE0E9B159023EAF0
:1033D000E3710B9170E52D215B428DF88510CBE6F2
:1033E0000A9B9C1C24EAE4700E940B9063E50B92FC
:1033F00041E50DF18601C9E60C9C0C2020604FF0E0
:10340000FF30FEF763BC1E98ACE600BF2DE9F04F1D
:1034100003690C6983B09C42064600F36B81E01C93
:1034200082008F18B5187B6868685A1CB0FBF2F5EB
:1034300001F114030193013C043706F11408002D37
:1034400000F0BF804B69D8F8002098B24FEA134CC7
:1034500005FB00F005FB0CF303EB104C1FFA8CFE90
:1034600093B280B21B1ACEEB1242019802EB234EAC
:103470001FFA83F901F1180249EA0E49381A06F1D8
:103480001803974243F8049CC0F380004FEA1C4C99
:103490004FEA2E4E72D328B310681B6882B2000C1C
:1034A00005FB02C205FB00F01FFA83FC00EB124093
:1034B000F44492B21FFA80FEC2EB0C0CCEEB134325
:1034C00003EB2C4E1FFA8CF242EA0E4C01F11C0267
:1034D00006F11C03974243F804CC4FEA2E4E4FEA04
:1034E000104C4BD3104650F804BBD3F800901FFA91
:1034F0008BFA4FEA1B4B05FB0ACC05FB0BFB1FFAB3
:1035000089FA0BEB1C4BD6441FFA8CFC1FFA8BFA82
:10351000CCEB0E0ECAEB194909EB2E4A1FFA8EFCB2
:1035200099464CEA0A4E49F804EBD2F804C05A68AE
:103530001FFA8CF305FB03FE4FEA1C4C05FB0CF352
:103540000EEB1B4B03EB1B4C93B21FFA8CFE03EBF1
:103550002A431FFA8BFBCBEB0303CEEB124202EBA9
:10356000234E9AB24B4642EA0E49021D974243F857
:10357000049B4FEA1C4C4FEA2E4EB3D2201D06EBA3
:1035800080035A68EAB9181D984519D250F8042CDE
:10359000B2B9043BC8EB0300C21C50070DD5013C77
:1035A00098450DD21A68043B3AB109E01868043B0B
:1035B00030B91A68013C043B12B9013C9845F5D377
:1035C0003461304602F0F0F80028C0F28280019A9F
:1035D000D8F8001052F8040B1FFA81FC83B2000CDB
:1035E000C3EB0C03C0EB114101EB23401FFA83FE38
:1035F000019B4EEA004CF91A0135434600149742EC
:1036000043F804CBC1F380014BD3B9B152F804EBBA
:1036100019681FFA8EF91FFA81FAC9EB0A094FEAF5
:103620001E4C4844CCEB114101EB204180B240EAF2
:10363000014043F8040B0814974232D382461146E6
:1036400051F8040BD3F800E01FFA80F91FFA8EFB43
:103650004FEA104CC9EB0B0B0BEB0A00CCEB1E4AEC
:103660000AEB204980B29E4640EA09404EF8040B1E
:1036700050685A6883B21FFA82FC000CC3EB0C033B
:1036800003EB2943C0EB124202EB23409AB242EA19
:10369000004A0A1D7346974243F804AB4FEA204A9A
:1036A000CDD2211D06EB8103586890B91A1D9845AB
:1036B0000ED252F8041C59B9043BC8EB0300C21CDB
:1036C000520713D5013C984502D21868043B68B1F3
:1036D0003461284603B0BDE8F08F1A68043B002A25
:1036E000F6D11968013C043B0029F1D1013C984511
:1036F000F3D3EDE70020EDE72DE9F04F016C9FB02B
:1037000081462B9C92469B4651B1436C012202FAA2
:1037100003F24B608A6001F001FD0020C9F840000F
:10372000BBF1000839DB0021216000242246C7F6E6
:10373000F074C7F6F07208EA0403934216D05046BC
:1037400059460022002303F089FB00282BD02A9D34
:103750002C9C01212960002C00F0CF80A24A22601D
:1037600002F1FF3840461FB0BDE8F08F2A9C42F2BC
:103770000F752560BAF1000F00F0A680DFF87082A7
:103780002C9D002DEED098F80340002C00F008820C
:1037900008F108012C9C2160E4E728F0004801258D
:1037A0002560C346C1E71DAE1CAF52460096019787
:1037B00048465B4602F032F9C8F30A520B90002AE1
:1037C00040F08C801C9F1D986FF482613E188E42E1
:1037D000C0F218834FF60E45CFF6FF75A81B06F210
:1037E000124208FA00F12AFA02F341EA030003F058
:1037F00057F80124A1F1F871013E0C940023002236
:10380000C3F6F87302F00EFF71A3D3E9002303F0AF
:10381000BDF871A3D3E9002302F006FF0446304649
:103820000D4603F04DF86EA3D3E9002303F0AEF884
:1038300002460B462046294602F0F6FE04460D4697
:1038400003F03EFB2946079000222046002303F0A8
:103850000FFB002840F0AC82079C162C00F2A582DA
:10386000624D524605EBC4005B4603C803F01EFBE5
:10387000002800F0CF82079A0024511E079110946F
:10388000BE1B013E00F1AB82002508960A95079801
:103890000028C0F29B82089A0F901118002008910E
:1038A0000E90289C092C2BD8052C41F31E80231F39
:1038B00028930025289A911E032923D8DFE811F0C8
:1038C000250513052B032205494B4A48C8F3130865
:1038D000B8F1000F0CBF8046984651E72BF07F47A8
:1038E00027F4700444F07F55A2F2FF3600225046C0
:1038F00045F440111C9F0C9280E7DFF8FC8031E713
:103900000025289500242146C9F84440484601F086
:10391000DFFB4FF0FF33012180460993C9F84000D7
:10392000119329940D911D980028C0F23C81079AAB
:103930000E2A00F338812D4D299B05EBC200002B88
:10394000D0E90045CDE90445C0F2E284DDE9042375
:103950005046594603F044F903F0B2FA064602F025
:10396000AFFFDDE9042303F011F802460B46504691
:10397000594602F057FE099B06F13002C246012B60
:1039800004460D460AF8012B00F095800023002222
:10399000C4F2240302F0FAFF0022002304460D467D
:1039A00003F05CFA002840F0BE80099E08F102078F
:1039B00008EB060BC7EB0B00C20700F1C680CDF881
:1039C0001880CDF82090DDE904894CE0AFF3008049
:1039D00061436F63A787D23FB3C8608B288AC63F15
:1039E000FB799F501344D33F55750008A875000814
:1039F00084750008787500085475000802F0C6FF49
:103A00000022002304460D4603F028FA42464B46A6
:103A1000002840F075852046294603F0E1F803F0C0
:103A20004FFA064602F04CFF42464B4602F0AEFF0C
:103A300002460B462046294602F0F4FD30360023AC
:103A40000022C4F2240307F8016C02F09FFF002259
:103A50000023BA4604460D4607F1010703F0FEF9BC
:103A6000002840F04D8542464B462046294603F04B
:103A7000B7F803F025FA064602F022FF42464B460D
:103A800002F084FF02460B462046294602F0CAFD9A
:103A90000023002206F1300C5F4507F801CCBA463E
:103AA00004460D46C4F2240307F10107A6D1DDF850
:103AB0001880DDF8209022462B462046294602F049
:103AC000B3FD04460D462246DDE904012B4603F012
:103AD000CFF940B9DDE9040122462B4603F0BEF9D7
:103AE00008B3F0071FD51AF8017C6FEA08010AEB4A
:103AF0000102D10706D5392F0AF1FF3310D113F88F
:103B0000017C9A46392F0AF1FF3309D1984500F01C
:103B1000058513F8017C9A46392F03F1FF33EED067
:103B2000781CC4B21C7048460B9901F0F7FA0024C7
:103B3000079B8AF800402A9D2C9C581C2860002C6A
:103B40003FF410AEC4F800A00CE6DDE904232046E3
:103B5000294603F045F803F0B3F9064602F0B0FE3B
:103B6000DDE9042302F012FF02460B4620462946F7
:103B700002F058FD303600230022C4F2240307F877
:103B8000016C02F003FF00220023BA4604460D46F2
:103B900008F1030703F062F900283FF410AFC2E711
:103BA00008F10301F6E50D9F002F00F01D81289C10
:103BB000012C40F3DC8309990E9A481E8242C0F220
:103BC000B884151A09990029C0F207860A9C099F32
:103BD0000A9A4846D319089A0121D7190A930897D7
:103BE00001F070FB0C9064B10898002809DD0A9977
:103BF0000346A342A8BF2346CA1AC71A0A92E41A68
:103C000008970E9800281ADD0D9B002B00F07E848B
:103C1000002D10DD0C992A46484601F0C5FC0C9099
:103C20000C990B9A484601F057FB0B9906464846FB
:103C300001F074FA0B960E994A1B40F09283012111
:103C4000484601F03FFB0F9D0746002D05DD394634
:103C500048462A4601F0A8FC0746289A012A40F364
:103C6000418100250F99002940F0F5830122089930
:103C7000521812F01F0000F0BC80C0F12002042A8C
:103C800040F32D860A9AC0F11C00131809180A93F4
:103C9000241808910A9A002A04DD48460B9901F07D
:103CA000CDFC0B90089A002A04DD3946484601F005
:103CB000C5FC07461098002840F0B58309990029F3
:103CC00040F3D2830D98002840F0A680099C0D9DFA
:103CD000E30740F18983A2460B9E10E001F028FA29
:103CE00039460646FFF792FB303008F804003146AB
:103CF00048460A22002301F01BFA651C0646394695
:103D00003046FFF783FB6C1C00F1300B0A220023C6
:103D1000A2453146484608F805B0DFDC0B96099904
:103D200000250129ACBF08EB010A08F1010A0122B4
:103D30000B99484601F082FC39460B9001F034FDA6
:103D4000002840F32B841AF8012C6FEA08030AEBD1
:103D50000301CC0706D5392A0AF1FF3410D114F833
:103D6000012CA246392A0AF1FF3409D1A04500F0FE
:103D7000538314F8012CA246392A04F1FF34EED003
:103D8000501C20704846394601F0C8F90C9A002AA8
:103D90003FF4C9AE002D00F0DE82954200F0DB82D8
:103DA0004846294601F0BAF9D5E20123109367E5A8
:103DB000079802F085FD22462B4603F04FF80028B5
:103DC0007FF44AAD0798411E079145E50A9A079985
:103DD0000025541A4B420A940E930F9561E57642E2
:103DE00000230A96089352E50D9B0E9D0A9C0C93A6
:103DF000F9E61C230A99089AC818E418D3180A90FF
:103E0000089347E74FF6EE33CFF6FF739C1B0AFA91
:103E100004F0ECE4109033E5002C05DD48460C99E5
:103E2000224601F00BFC0C90002D40F0F0830C9E1C
:103E3000099808F1010408EB00010C9D0AF0010249
:103E4000CDF83080DDF82C8009910A923946404641
:103E5000FFF7DCFA29468246404601F0A5FC3246CF
:103E600006903946484601F0CDFCC3680246601E04
:103E700008900AF1300B002B00F082824846114670
:103E800001F04CF9012306990029C0F2668305D19F
:103E9000289A1AB90A98002800F05F83002B00F3D3
:103EA000CE83099B04F801BC9C42A24600F0D78354
:103EB00041460A220023484601F03AF9B5428046BD
:103EC00000F0888229460A220023484601F030F992
:103ED000314605460A224846002301F029F90134FB
:103EE0000646B3E7BAF1000F7FF4BBAECBF3130382
:103EF0005846002B40F076840025C7F6F075054043
:103F0000002D3FF4AFAE0A9908984A1C431C0A9250
:103F100008930125A6E601200D90299A002A40F376
:103F200017831446119209920021172CC9F84410E6
:103F30000AD9012204235B0003F114001146013267
:103F4000A042F8D9C9F84410484601F0C1F80E2C37
:103F50008046C9F840003FF6E6AC002D3FF4E3ACE4
:103F6000079FCDE914AB002F40F32E83994807F04B
:103F70000F0600EBC6013E11D1E90045F10640F104
:103F8000E182954F5046D7E90823594602F028FEB2
:103F9000CDE9120106F00F06032786B1DFF838A23B
:103FA00020462946F20704D5DAE9002302F0EEFCA8
:103FB000013776100AF1080AF4D104460D46DDE90E
:103FC000120122462B4602F00BFE82468B46109BC6
:103FD00053B10023504659460022C3F6F07302F055
:103FE00047FF002840F00D84384602F069FC524635
:103FF0005B4602F0CBFC00230022C4F21C0302F05B
:1040000013FB04460998A1F15075002800F05B826B
:10401000079E1A96099E0D99002900F02A836D4F7C
:10402000002107EBC602A2F10803D3E90023002018
:10403000C3F6E07102F0D4FD22462B4602F0F2FAFC
:10404000CDE916015046594602F03AFF044602F007
:1040500037FC02460B465046594602F0E3FA30342C
:10406000CDE91201DDE91223DDE91601E7B2C2460E
:104070000AF8017B02F01AFF002840F003840021B7
:10408000DDE912230020C3F6F07102F0CBFA0246FC
:104090000B46DDE9160102F009FF002840F01B8401
:1040A000012E40F38D826FEA0A054644AF190023C2
:1040B00007F001040022C4F22403DDE9160118967A
:1040C000169402F063FC00230022C4F22403044689
:1040D0000D46DDE9120102F059FC0F46064602F0DA
:1040E000EFFE834602F0ECFB02460B4630463946B3
:1040F00002F098FA0BF13003DFB2D3460BF8017BE4
:1041000022462B46CDE91201DA4602F0B1FE002824
:1041100040F0E6800021DDE912230020C3F6F071B3
:1041200002F080FA22462B4602F0A2FE002840F060
:10413000B28318998B4500F043821698002840D02E
:1041400000230022C4F224032046294602F01EFC6C
:1041500000230022C4F2240304460D46DDE91201C7
:1041600002F014FC0F46064602F0AAFE824602F058
:10417000A7FB02460B463046394602F053FA0AF1D5
:104180003002D7B20BF8017B22462B46CDE9120153
:10419000DA4602F06DFE002840F0A2800021DDE941
:1041A00012230020C3F6F07102F03CFA22462B469F
:1041B00002F05EFE002840F06E83189B9B4500F0E5
:1041C000FF81CDF86C90CDF85880DDF86090DDE986
:1041D000126750E0A87500087076000800210020E2
:1041E000C3F6F07102F01EFA22462B4602F040FEA2
:1041F00000230022C4F22403002840F04783204615
:10420000294602F0C3FB00230022C4F22403044623
:104210000D463046394602F0B9FB0F46064602F01D
:104220004FFE824602F04CFB02460B4630463946B2
:1042300002F0F8F90AF130035FFA83F80BF8018B0A
:1042400022462B4606460F4602F012FEDA4632465A
:104250003B46002840D100210020C3F6F07102F057
:10426000E1F922462B4602F003FE002840F00E83BF
:10427000CB4500F0A1810023204629460022C4F24C
:10428000240302F083FB00230022C4F2240304462B
:104290000D463046394602F079FB0F46064602F0DD
:1042A0000FFE804602F00CFB02460B4630463946B4
:1042B00002F0B8F908F13002DA465FFA82F80AF83B
:1042C000018B22462B4606460F4602F0D1FDD3460F
:1042D00032463B46002881D0DDF85880DDF86C90EE
:1042E0001A9807901FE400240D942998079BC21880
:1042F000541C002C119209943FF716AE0021C9F806
:10430000441021E601210D91EFE700230D9304E60F
:10431000099900293FF71AAB40F0CD820023002213
:10432000C4F21403DDE9040102F030FB52465B469F
:1043300002F0B2FD099F0C97002800F0AA80299D89
:10434000C246E94307914846394600F0E7FE0C9A19
:10435000002A3FF4E8AB48460C9900F0DFFEFFF777
:10436000E2BB48460B9901F01FF90B9067E40C9AE9
:10437000002A00F03A8200F233470E9D0A9C27E49F
:1043800011464046039201F00FFA0399034648464E
:10439000039300F0C3FE039B002B7FF474AD289AB7
:1043A000002A7FF470AD0A9800287FF46CADBBF151
:1043B000390FCDF82C80DDF8308000F0E7800698CA
:1043C000002801DD0AF1310BDDF820A00AF801BB5D
:1043D0000C96D7E4294648460A22002300F0A8FE9E
:1043E00001340546064631E50B983946FFF70EF8CD
:1043F000099B012500F1300BAB4288F800B07FF734
:104400008EAC48460B990A220D9B00F091FEDDF818
:1044100024A00B90064672E4079B3124591C079197
:1044200088F80040AEE40B98394601F0BDF9002849
:10443000BFF644AC0B990A220023484600F078FEF0
:10444000079B0D9A591E0B900791002A40F0358268
:104450001198099032E4386907EB8003186900F07D
:10446000E5FEC0F1200202E4289A022A7FF72AAC76
:1044700000297FF464AF39460522099B484600F0C5
:1044800057FE074639460B9801F08EF900287FF752
:1044900056AF0798C2463123441C0AF8013B0794E3
:1044A00051E7384602F00CFA02460B465046594690
:1044B00002F06CFA00230022C4F21C0302F0B4F8EC
:1044C0000446A1F1507500230022C4F214035046A3
:1044D000594602F0A7F822462B4682468B4602F048
:1044E000E5FC0746002840F0C180224605F1004364
:1044F0005046594602F0BCFC002861D00C971EE7DC
:10450000DDF81880DDF82090FFF70DBB48460B99C9
:104510000E9A01F049F80B90FFF791BB079D3022EE
:10452000691C4346312488F8002007911C70FFF76E
:10453000FABA0E9F0F9BC51B5C190F940E900025B5
:10454000FFF740BBDDE914230227CDE9122324E560
:104550000124119409942994D0E6002BCDF82C80E5
:104560005C46DDF830807FF72FAF01220B9948467B
:1045700001F064F839460B9001F016F9002840F379
:104580009381392C0AF1310B7FF41EAFDDF820A0A6
:1045900039220AF8012B0C96FFF7D7BB03D11BF089
:1045A000010F7FF4D0AB524612F8011C9246013A3B
:1045B0003029F9D0FFF7E6BBDDF85880DDF86C90C4
:1045C000DDE914ABFFF7AFB9079D6C42002C00F09A
:1045D0001381B34B04F00F0103EBC1020CCADDE9F8
:1045E000140102F0D3F9241182468B4600F0708149
:1045F000AC4D0227E30704D5D5E9002302F0C6F944
:10460000013708356410F5D182468B46DFE40C9AF9
:104610004846516800F05CFD0C9D04462B69294614
:104620009E1CB2000C3100F10C0000F09FFC4846CB
:104630002146012201F002F80646FFF7F9BBBBF163
:10464000390FCDF82C80DDF830809FD0DDF820A028
:104650000BF1010E0AF801EB0C96FFF793BBCDF8B6
:104660002C80DDF830800C96FFF761BB00270C979B
:104670000FE78B4A731E02EBC307129322462B46A9
:10468000D7E9000102F082F9CDE9180150465946F8
:1046900002F016FC074602F013F90B460246594693
:1046A000504601F0BFFFC24607F13003012E044619
:1046B0000D460AF8013B7CD008F1FF3404EB060BF1
:1046C0006FEA080505EB0B0600230022C4F2240361
:1046D00006F00107169702F059F90C46064602F05B
:1046E000EFFB039002F0ECF802460B463046214601
:1046F00001F098FFDDF80CC0DA450CF130020446F9
:104700000D4688F80120574651D0169BEBB1002387
:104710000022C4F2240302F039F90D46064602F0E5
:10472000CFFB039002F0CCF802460B4630462946F8
:1047300001F078FFDDF80CC0574604460CF130005C
:1047400007F8010F5F450D4631D02046294600236A
:104750000022C4F2240302F019F90D46044602F0C7
:10476000AFFB064602F0ACF802460B46204629464F
:1047700001F058FF303600230022C4F2240307F86A
:10478000016F02F003F90D46044602F099FB06465C
:1047900002F096F8303602460B462046294601F0D4
:1047A00041FF07F8016F5F45D1D104460D461299CC
:1047B0008A4400230022C3F6E073DDE9180101F00A
:1047C00033FF22462B4602F053FB002843D01A98B1
:1047D0001AF8017C0790FFF788B90A980027441A55
:1047E000FFF7F6B95546FFF73DBA1C9B0E9DC3F186
:1047F00036070A9CFFF7ECB9DDE914AB0227FFF797
:10480000E6BB099C002C3FF44CAE119A002A7FF7BE
:10481000D7AE00230022C4F224035046594602F0CA
:10482000B5F88246781C8B4602F04AF802460B46E1
:104830005046594602F0AAF800230022C4F21C0395
:1048400001F0F2FE04460798A1F15075461E1A9633
:10485000119EFFF7E0BB0021DDE918230020C3F61D
:10486000E07101F0DFFE22462B4602F01FFB00281C
:104870003FF4A6AE534613F8012C9A46302A03F1B2
:10488000FF33F8D01A9C0794FFF74DB94746DDF87F
:104890006C90DDF858801A990791FFF726B900BF90
:1048A000A8750008707600087FF48EAD1BF0010F2C
:1048B0003FF48AAD65E6002720E6002348460C99C0
:1048C0000A2200F035FC119B0C900993FFF7F6B912
:1048D0000227FFF77CBB1A9A0792FFF706B93FF44D
:1048E000D9A9C0F13C03FFF785BA0125FEF7E2BF65
:1048F00040F24440C2F20000704700BF2DE9F04F83
:1049000001F10B05162D83B0064627D935F00705B2
:1049100027D4A94225D8304600F0D6FBB5F5FC7F58
:1049200023D2B94F4FEAD50C07EBCC02D46894429E
:1049300000F0D8816368E26823F0030163185868C7
:10494000A16840F001005860CA609160304600F0F4
:10495000BDFB0834204603B0BDE8F08F1025A94206
:10496000D9D90C2434600024F4E75FEA552C00F018
:104970008980BCF1040F00F253814FEA951707F1CB
:10498000380E4FEA4E01A04F07EB8101CC68A142DF
:1049900005D10CE0002A7ADAE468A14207D0636806
:1049A00023F00300421B0F2AF4DD0EF1FF3E0EF14F
:1049B000010C954B3C6903F1080E744500F07081C1
:1049C000616821F003014A1B0F2A00F35681002A77
:1049D000C3F814E0C3F810E067DAB1F5007F80F0A7
:1049E0002D81C90888104FF0010808FA00F803EB80
:1049F000C1015A68886848EA0202E160A0605A6012
:104A00008C60C46001204FEAAC0400FA04F09042CC
:104A100055D8024206D12CF0030C400002420CF1A2
:104A2000040CFAD007EBCC094C46E046E3689C4204
:104A300007D137E1002A80F25F81DB689C4200F0F9
:104A40003181596821F003014A1B0F2AF2DD1C460F
:104A5000D86854F808CF591945F0010842F001050B
:104A6000CCF80C00C0F808C0C3F804807961396143
:104A7000C1F80CE0C1F808E04D608A50304600F003
:104A800025FB67E74FEAD50E4FEA4E017BE7221878
:104A90005068E368A16840F001005060CB60996005
:104AA000304600F013FB083454E762185368304670
:104AB00043F00101516000F009FB08344AE7BC688B
:104AC000606820F00309A94504D3C5EB09030F2B47
:104AD00000F38D804D4A4E4B11681868013104EB8C
:104AE000090B05EB000300F0518103F580500F30F6
:104AF00020F47F6121F00F0C614630468DE80410F0
:104B000001F020F89DE80410B0F1FF3F804600F06E
:104B10004681834500F20881DFF800A1C345DAF839
:104B200000306344CAF8003000F03E811268013260
:104B300000F04B81CBEB080B5B44CAF8003018F057
:104B4000070100F00481C1F10800C1F580538044E1
:104B500003F1080208EB0C010805030DC3EB020B7F
:104B60003046594600F0EEFF431C00F03A81C8EB96
:104B700000020BEB020141F00100DAF80030BC4208
:104B80005B44C7F80880CAF80030C8F8040015D0A4
:104B9000B9F10F0F40F2E9806168A9F10C0222F02F
:104BA000070201F0010C0520A11842EA0C0E0F2AA1
:104BB000C4F804E04860886000F20B81154ABC68C4
:104BC0001068834288BF1360134A11688B4288BF04
:104BD0001360636823F00300A842C5EB000301D310
:104BE0000F2B04DC304600F071FA0024B2E66219A3
:104BF00043F0010145F00105656030465160BA603F
:104C000000F064FA0834A5E67C040020880800203F
:104C1000A8080020A4080020A0080020AC0800205C
:104C2000BCF1140F77D9BCF1540F00F286804FEA23
:104C3000153404F16E0E4FEA4E01A4E6480A04282A
:104C40006ED9142800F2A58000F15B02500007EB3A
:104C500080008368DFF8C88183427BD05A6822F0E5
:104C60000302914202D29B689842F7D1D9687A68D0
:104C7000E160A360DC608C60C4E6611942F0010071
:104C800045F001056560596119614860C1F80CE0A3
:104C9000C1F808E08A50304600F018FA083459E6A6
:104CA0005A68AFE608F10108083418F0030F7FF4E2
:104CB000BDAE49461CF0030FA1F108040CF1FF3C06
:104CC00000F0A2800968A142F4D07C684000A042B4
:104CD0003FF6F5AE00283FF4F2AE044200F09980B2
:104CE000C4469FE604F108036469A34208BF0CF1BF
:104CF000020C3FF45EAE1DE6591848681C4654F895
:104D0000082FDB6840F001004860D3609A603046AD
:104D100000F0DCF91EE60CF15B0E4FEA4E0132E6C4
:104D20008A093832500092E7BC423FF4F5AE3C4C61
:104D3000A468626822F003004EE7BCF5AA7F1AD887
:104D40004FEAD53202F1770E4FEA4E011BE64FF4DF
:104D50008052FFE69110012000FA01F0D8F80420FB
:104D600019460243C8F8042082E70122C8F804204B
:104D70004446002030E740F254539C4521D84FEA86
:104D8000954000F17C0E4FEA4E01FCE503F1100C5A
:104D9000B2E6542829D80A0B6E32500057E7BC6897
:104DA000616821F0030017E74FEA0B50010D00295D
:104DB0007FF4BCAEB8680CEB090141F0010444601B
:104DC000FCE6FC214FF07E0EDDE51648C0F80080C1
:104DD000B5E604F10801144C304600F0F1FF2368F9
:104DE000ECE601204FF0000BC7E6B0F5AA7F03D830
:104DF000CA0B773250002AE740F2545398420CD83D
:104E00008A0C7C32500022E77C6824EA00047C6033
:104E10005CE7400008F104085FE7FC207E2216E70B
:104E20007C04002088080020AC0800208307F0B430
:104E3000C9B200F09680531E002A00F094800278D8
:104E40008A420BD0421CD8071AD512F0030F104625
:104E50001CD01478013B01328C4211D1F0BC704758
:104E6000002B7CD01278013B8A42F7D014F0030F5C
:104E7000204604F1010209D02478013B8C42EDD098
:104E800012F0030F104602F10104E9D1032B3FD9C0
:104E9000046841EA012545EA054585EA0407A7F1CA
:104EA000013222EA07021E1F041D12F0803FC6F3E2
:104EB00080072DD1032E334629D967B126682046B5
:104EC00085EA0602A2F1013626EA0202043412F053
:104ED000803F19D01CE020462468061D85EA0402A4
:104EE000A2F1013424EA020212F0803F10D13468AA
:104EF000043B85EA0402A2F1013424EA0202341DD3
:104F000012F0803F304603D1043B032BE3D8204608
:104F10005D1E23B303788B42A0D0431C0022E80718
:104F200014D51C781846012201338C4296D0954244
:104F3000184603F1010402F102020ED01B788B42E5
:104F40008CD020462478431C8C4287D0954218464A
:104F500003F1010402F10202F0D100207EE71846BD
:104F60007CE7134692E7104678E700BF0F2A2DE949
:104F7000F00340F2A18041EA00039B0740F09E80CD
:104F80000C68A2F1100504604B68AC4643608C6865
:104F9000BCF10F0F8460CC68C5F30015C46000F14C
:104FA000100301F110042BD975B12568ACF1100C78
:104FB0001D6065685D60A5689D60E5681034DD6012
:104FC0001033BCF10F0F1BD9276804F110061F60C6
:104FD000676803F110055F60A768ACF1200C9F6063
:104FE000E768DF6024691C61776806F110046F6070
:104FF000B7682033AF60F668BCF10F0FEE60E3D8FE
:10500000A2F1100828F00F0302F00F0403F1100CB6
:10501000032C00EB0C0301EB0C0851D9211F4FEAC4
:105020009109444608EB890C54F8046BC8EB0C0159
:105030000CF1040C1D46644545F8046BC1F3800176
:1050400012D029B154F8041B644545F8041B0BD059
:10505000274657F8041B2E4646F8041B64686C600C
:105060003C1D351D6445F3D109F1010C4FEA8C0953
:1050700002F0030208EB09014B44D2B10D789A18F3
:10508000DC4303F8015B1419934204F0010410D0CF
:105090002CB111F8014F03F8014B934209D04D7820
:1050A0001C4604F8015B8D7802315D70631C9342ED
:1050B000F5D1BDE8F00370470346DEE70346DDE7C0
:1050C00041462246D9E700BF704700BF704700BF86
:1050D000C36C70B505460C464BB153F8240080B143
:1050E000016843F8241000230361C36070BD0421EC
:1050F000212200F0E9FD0346E8640028EDD10020FC
:1051000070BD012101FA04F6721D2846920000F0DC
:10511000DBFD0028F3D044608660E4E731B1C36C66
:105120004A6853F82200086043F82210704700BF15
:105130002DE9F8430F464969D7F810808CB20E0C60
:1051400002FB043302FB06F19CB201EB134604EBB5
:10515000064407F1180343F8044C012408F1FF3119
:10516000360CA045814601F0010038DD98B11B687E
:10517000022499B2180C02FB016602FB00F0B1B2E6
:1051800000EB164001EB004607F11C0343F8046CEA
:10519000060CA04523DD18681D4681B2000C02FBF9
:1051A000016602FB00F1B0B201EB164100EB0146D3
:1051B00045F8046B5868023483B2060C02FB03F313
:1051C00002FB06F603EB114106EB11408EB206EB33
:1051D00000412B46060CA04543F8041BDBDC46B11E
:1051E000BA68904508DA07EB880208F101005661B9
:1051F00038613846BDE8F8837C684846611CFFF793
:1052000067FF3B6907F10C019A1C0446920000F10C
:105210000C00FFF7ABFE7868D9F84C3053F820103B
:10522000396043F820702746DDE700BF020C0346D3
:1052300016D10304102013F07F4F01D108301B0258
:1052400013F0704F01D104301B0113F0404F01D116
:1052500002309B00002B02DB5B0003D42020704750
:105260000020E8E7013070470368024613F00700AA
:1052700007D0D9071FD498071FD4980810600220C0
:10528000704799B209B91B0C102013F0FF0F01D120
:1052900008301B0A190701D104301B09990701D1F5
:1052A00002309B08D90704D45B0801D12020704745
:1052B00001301360704700207047590811600120C9
:1052C000704700BF10B50C460121FFF701FF012216
:1052D0004461026110BD00BF2DE9F04F0C691769F0
:1052E00085B0BC420E46904604DA224646463C460D
:1052F00088461746B368E21971689A42C8BF0131FF
:105300000192FFF7E5FE0199039000EB810314334E
:105310001430984202931AD20299C243039B8A180E
:1053200002991833002599420560C2F380000ED916
:1053300028B11D60039B029A1C339A4207D9029838
:10534000194641F8045B5D600B1D9842F8D808EBE4
:105350008703143306EB840408F1140714349F42C6
:10536000009306F1140C80F0F9800398183057F878
:10537000043B9AB2002A6ED0614651F8046B50F893
:10538000045C1FFA86F8ABB2360C2D0C02FB083316
:1053900002FB06566FEA0C0506EB13469BB243EA86
:1053A00006436519360C8C4240F8043CC5F3800571
:1053B00003464DD9CDB1DCF8045003681FFA85F9D6
:1053C0001FFA83F82D0C1B0C02FB098802FB053524
:1053D000464405EB1645B6B246EA05460346043197
:1053E00043F8046B2E0C8C4232D90D46D3F800E002
:1053F00055F8049B1FFA8EFA1FFA89FB02FB0BAAD1
:105400004FEA19494FEA1E4802FB098E56440EEB3B
:105410001649B6B2984646EA094648F8046B4E6803
:1054200059681FFA86FA8BB2360C090C02FB0A3354
:1054300002FB061603EB194306EB134699B24346EB
:1054400041EA0648291D360C8C4243F8048BCCD81F
:105450001E6057F8043C1A0C7BD050F8046CBCF862
:105460000050310C02FB0515B3B243EA054640F883
:10547000046CE24603465AF8041B53F8046B090C0B
:105480001FFA86F902FB01916FEA0C0E04EB0E087D
:1054900001EB15415445C8F3800905464FEA114810
:1054A00056D9B9F1000F1BD0BCF80450360C02FBE2
:1054B000056589B205EB080E41EA0E4643F8046C17
:1054C0005AF8041B1D4653F8046B090C1FFA86F9A1
:1054D00002FB0191544501EB1E414FEA114837D9B7
:1054E000BAF800B0350C02FB0B5689B206EB080B7C
:1054F00041EA0B4543F8045C56461D4656F8049BAA
:1055000055F8041BDAF804804FEA194E1FFA81FAA5
:1055100002FB0EA9090C1FFA88F802FB081E09EB12
:105520001B4A0EEB1A481FFA8AF949EA0841B246AB
:1055300045F8041C5AF8041B5E68090CB3B202FB60
:10554000013303EB18412B1D54454FEA1148C7D8CE
:105550002960009A0430BA423FF609AF0199002948
:105560001ADD029B53F8040C043BA8B901994A1EAA
:10557000D00717D553F8040D019268B9019A08E0D5
:1055800053F8041C043B31B953F8040C013A043BB2
:1055900008B9013AF4D1019201990398016105B06B
:1055A000BDE8F08F0A46F4E712F003032DE9F0415D
:1055B000144680460F462BD1A4101BD0D8F8486063
:1055C0002EB92EE0641015D03568B5B12E46E3072C
:1055D000F8D5394632464046FFF77EFEB7B17A68C5
:1055E000D8F84C30641053F82210396043F8227018
:1055F0000746E9D13846BDE8F0813146324640469B
:10560000FFF76AFE306005600646E0E70746D9E727
:10561000094A5F1E52F827200023FFF789FD07463D
:10562000CAE7404640F27121FFF74CFE0646C8F833
:10563000480000203060CAE7987500082DE9F84F4F
:105640000B694FEA6218934608EB030A8A680AF16D
:10565000010696420F468146496803DD520001313A
:105660009642FBDC4846FFF733FDB8F1000F00F12E
:1056700014041DDD0123002208F1FF31434522609F
:1056800001EA030100F118050ED029B102234345B8
:105690002A6000F11C0507D02C4644F8042B023385
:1056A0006A60251D4345F7D100EB830202F1140423
:1056B000396907F1140507EB810214321BF01F0B47
:1056C00051D02968234601FA0BF107F1180443F879
:1056D000041BED4354F8041CCBF1200E5519A242D3
:1056E000C5F3800521FA0EF82AD975B1216807F1B2
:1056F0001C0401FA0BF148EA010143F8041B54F8B9
:10570000041CA24221FA0EF81AD921681D4601FA9A
:105710000BF148EA010145F8041B214651F8048BBE
:10572000646828FA0EFC04FA0BF44CEA04045C608A
:105730000C4654F8041B2B1DA24221FA0EF8E4D8A3
:10574000C3F80080B8F1000F01D00AF10206D9F8C1
:105750004C307A68013E53F822100661396043F8F4
:105760002270BDE8F88FEB4307F118012D68D318BC
:105770008A4244F8045BC3F38003E8D933B10B6871
:1057800007F11C018A4244F8043BE0D98C465CF8DE
:10579000043B254645F8043B4B680CF1040163606B
:1057A0002C1D8A42F2D8D2E7F0B40B690546006995
:1057B000C01A24D11A1D94002B191E1D0919143565
:1057C00056F8044C0A68EF43BE199442C6F38006AB
:1057D00010D19D4213D23EB153F8044D51F8042D1F
:1057E000944207D19D420AD253F8044D51F8042D3A
:1057F0009442F1D0A24294BF01204FF0FF30F0BCA0
:10580000704700BF2DE9F84F0F4604461146384651
:105810009146FFF7C9FF051E00F0F780C0F2EF8048
:105820004FF0000A20467968FFF752FC7E69D9F8EC
:105830001410D9F810501FFA86FC8CB2090CC4EB76
:105840000C043B6909EB8505C1EB164609F114020E
:1058500006EB244105F1140BD243A4B209F118065A
:105860005A4444EA014407EB830800F1180509147F
:10587000B345C0F80CA04461C2F3800A08F11408D3
:1058800007F1180C2A4656D9BAF1000F1BD0DCF8E4
:105890000020366894B261181FFA86FE360CCEEBF3
:1058A0000104C6EB124202EB2441A6B246EA0144CF
:1058B00009F11C062C60091400F11C05B34507F121
:1058C0001C0C2A4637D9624652F8044B374657F823
:1058D000049B1FFA84FA1FFA89FE51444FEA1949C2
:1058E000CEEB0101C9EB144404EB21441FFA81FA09
:1058F0004AEA044E294641F804EBDCF804C0766815
:105900001FFA8CF909EB24441FFA86FA4FEA16466F
:10591000CAEB0404C6EB1C4E0EEB2449A6B246EAC1
:1059200009443E1D6C600D1DB34502F1040C4FEAA5
:1059300029412A46C7D8E04557D9624652F8046B38
:105940006FEA0C0AB4B261184FEA164909EB214E0E
:105950008CB208EB0A0644EA0E442946904541F809
:10596000044BC6F380064FEA2E4936D986B152F869
:10597000046BB4B2A144360C06EB29461FFA89F435
:1059800044EA0644904541F8044B4FEA264924D99D
:10599000174657F8044B0E461FFA84FA0AEB090E15
:1059A000240C04EB2E441FFA8EF949EA044E46F803
:1059B00004EBD2F804903A1D1FFA89F707EB244450
:1059C0004FEA194707EB2447A4B244EA07444C6066
:1059D000311D90454FEA2749DAD86FEA0C0202EBF5
:1059E000080121F00302111D6A18043A24B952F883
:1059F000041D013B0029FAD00361BDE8F88F3B4646
:105A00004FF0010A4F4699460CE720462946FFF71A
:105A10005FFB012202614561BDE8F88F2DE9F0438B
:105A2000012183B01D4614460A9FFFF751FBC5F3C1
:105A30000A5625F07F438046A94623F470000EB134
:105A400040F480100190002C24D002AA684642F84D
:105A5000084DFFF709FC019B002831D1009CC8F8D4
:105A60001440002B0CBF01240224C8F81830C8F8D9
:105A70001040DEB9A0F2324308EB840000693B60BD
:105A8000FFF7D4FB0B99C0EB44120A60404603B009
:105A9000BDE8F08301A8FFF7E7FB01990124C8F8EE
:105AA0001410C8F810402030002EE3D0A6F233497D
:105AB0000B9A09EB0003C0F135003B601060E5E78D
:105AC000C0F1200103FA01F423FA00F3009A0193D4
:105AD00044EA0201C8F81410C3E700BF0B4661B1E5
